:100000000C94FC000C94641D0C943D1D0C94240174
:100010000C9424010C9424010C9424010C942401CC
:100020000C9424010C9424010C9424010C942401BC
:100030000C9424010C9424010C9424010C942401AC
:100040000C94F31C0C9424010C94C11C0C949B1C68
:100050000C9424010C9424010C9424010C9424018C
:100060000C948B1D0C942401000000002400270038
:100070002A0000000000250028002B0000000008D6
:10008000000201000003040700000000000000005F
:10009000010204081020408001020408102001021F
:1000A000040810200000000023002600290004049A
:1000B0000404040404040202020202020303030310
:1000C0000303120204020404010205080E00FE0CE0
:1000D000FD0CFD0000000001172007E8C1CFEF0074
:1000E0002A0EE8C14F1C4989062355244F042B0EC4
:1000F000E8C14F962B1A0C42B97A30002C09E8C19E
:10010000CF4399AC0A2D09E8C1CF78B067042E0916
:10011000E8C1CF43991E042F10E8C19E8BE562B958
:10012000582E968BE5E2003017E8C10F524532A1F8
:100130004828128A8422A148281349E94100310C39
:10014000E8C18F8AA912B97E0F023210E8C18F1957
:10015000644291502ED6BBC11E023313E8C18F19E1
:100160006442B9586A982B096506790C003413E883
:10017000C10F8BA912A9442892A919CC72F51800B5
:100180003513E8C10F196872B9412813CC95644240
:100190007B10003614E8C10F1AC572151B4D2414CC
:1001A00009454299411E03370FE8C10F19ECCA7285
:1001B000B15C2C578F023819E8C18F1964429150F5
:1001C000249419644291502414096506790C00396D
:1001D00014E8C18F19644291502414C96816B9B249
:1001E000D01E043A0BE8C1CFCC1E27D383000000F9
:1001F0000004FFFF0000AA1E11241FBECFEFD8E0AD
:10020000DEBFCDBF12E0A0E0B1E0E4EFF8E502C050
:1002100005900D92A832B107D9F725E0A8E2B2E027
:1002200001C01D92AE3FB207E1F710E0CCEFD0E085
:1002300004C02197FE010E94DA26CB3FD107C9F7FF
:100240000E9461200C94782C0C940000662329F005
:100250006A3019F0862F90E008958FEF9FEF089590
:10026000CF92DF92EF92FF920F931F93CF93DF9382
:10027000EC01842F8770E1E0F0E0082E01C0EE0F62
:100280000A94EAF73E2F7E0199E7E90EF11CD701A7
:100290009C9110E0923018F41E2F913029F150E01B
:1002A000487FE8ADF9ADC880D980D60150969C91C1
:1002B000949F6001959FD00C11246C0D7D2D711DB4
:1002C000DF01A60FB71F011115C08C91812B832769
:1002D0008D932150D1F7DF91CF911F910F91FF9016
:1002E000EF90DF90CF90089530E0D9CF110F330F0A
:1002F000222389F39C91912B93279C938F5F877086
:1003000021508111F3CF9CADA90FB11DF701908150
:10031000923028F4913009F031E011E0E9CF31E07A
:10032000E7CF80E0089580E008958091B102909138
:10033000B202891B990B08952F923F924F925F92C0
:100340006F927F928F929F92AF92BF92CF92DF92E5
:10035000EF92FF920F931F93CF93DF93CDB7DEB74A
:10036000AA970FB6F894DEBF0FBECDBF0D871D8BC9
:10037000298F3A8F4B8F5C8F6F8F7BA3FE8EED8E14
:10038000E0914D05F0914E05892B21F0E0914F054C
:10039000F0915005FF27EE0FFF1FEE0FFF1FEF5AE2
:1003A000FA4F608171818281938124E630E040E0E0
:1003B00050E00E944327522E632E742E852E962ED7
:1003C0007A8B898B492E86017501110FEE08FE2C60
:1003D00087019501A6016E2D7E2D8E2D9E2D0FE19C
:1003E0000E944528A12CEAECBE2EFAE9CF2EABE301
:1003F000DA2EE12CF12C00E010E00E947027A52CF1
:10040000B62CC72CD82CE92CFA880989142D0E9407
:10041000EB260FE10E94602829833A834B835C839B
:100420006D837E838F83988729813A814B815C819C
:10043000550F220B322FA90129873A874B875C87FA
:10044000252D362D472D582D692D7F2D8989942DE9
:10045000A980BA80CB80DC80E984FE2C0E2D1E2D75
:100460000E947B2829833987498B5A8B6B8B7C8B25
:100470001C016D847D88898C9A8C3C8D3D8B4F8CC2
:100480005BA09301A4016B8D7D89C20121153440CD
:100490004B46544F644171058105910569F060F048
:1004A000612C24E0722E3BE6832E44EF942EB4E1BF
:1004B000BB8F1D8A412C512CEB8DEF8F9301A40132
:1004C0006E2F7D89C201211538454744584F6D4034
:1004D00071058105910560F4612C08E5702E87E4B3
:1004E000882E98EF992E2DE02F8F1D8A412C512CAC
:1004F000A980B984C988DA88EB88FC8881019301D6
:10050000A4016F8D7D89C2010E94A127298F3A8F96
:100510004B8F5C8F2D873E874F87588B8D859E85AF
:10052000AF85B8891FE0A12E0F97A105B10558F03E
:100530002D853E854F8558892B353105410551055F
:10054000B8F0BAE5AB2EB12CC12CD12CE12CF12C9A
:1005500000E010E02981398549895A896B897C89B5
:10056000C1010E94EB2639014A016F8F7D8B2C015E
:10057000A980B984C988DA88EB88FC888101930155
:10058000A4016F8D7D89C2010E949F27E0E4AE2EF9
:10059000F2E4BF2EAFE0CA2ED12CE12CF12C00E00A
:1005A00010E00E94EB26A980B984C988DA88EB881C
:1005B000FC8881010E94A12749014CA35BA3C901CA
:1005C000DA0121E030E040E050E00097A105B105FC
:1005D00021F020E432E44FE050E02D8B3E8B4F8B36
:1005E000588FBC01CD0127E0660F771F881F991F28
:1005F0002A95D1F72D893E894F89588D0E949926D9
:1006000029013A016F8F78A389A39AA3A980B9849D
:10061000C988DA88EB88FC88810194014CA15BA130
:1006200060E070E080E090E00E94EB262BA33CA30A
:100630004DA35EA36FA378A789A79AA78D859E85F2
:10064000AF85B88937E0880F991FAA1FBB1F3A955D
:10065000D1F79250A109B109840D951DA61DB71DB2
:10066000ED8DFE8D80839183A283B3832F8D38A17E
:1006700049A15AA124833583468357832D893E8916
:100680004F89588D2087318742875387298D3A8D2E
:100690004B8D5C8D60E070E080E090E00E94EB2686
:1006A00029013A014B01898799838D899E89AF89F8
:1006B000B88D5C016D01E12CF12C00E010E02BA164
:1006C0003CA14DA15EA16FA178A589A59AA50E9424
:1006D000A12759016A017B018C019201A301B40198
:1006E000898599810E947B28AA960FB6F894DEBF6F
:1006F0000FBECDBFDF91CF911F910F91FF90EF9073
:10070000DF90CF90BF90AF909F908F907F906F9031
:100710005F904F903F902F9008952F923F924F926D
:100720005F926F927F928F929F92AF92BF92CF9281
:10073000DF92EF92FF920F931F93CF93DF93CDB78A
:10074000DEB765970FB6F894DEBF0FBECDBF2D8321
:100750003E834F83588769877A878B879C87A982D6
:10076000BF86C88AD98AEA8AFB8A0C8B1D8B9E8633
:100770008D86211506ED300701E140070EE7500791
:1007800003E0600771058105910511F008F009C1CA
:100790002F37304F4A4F5240610571058105910551
:1007A00009F008F469C19501A601B7018C899D89FA
:1007B000A0E00E94902809F00DC1AD80BE80CF80DE
:1007C000D884E984FA840B851C8520E033E245E770
:1007D0005EEE64E170E080E090E00E94A127C90134
:1007E000DA01A901BD0120FF99C04F5F5F4F6F4F34
:1007F0007F4F49835A836B837C834F3F510561054B
:10080000710540F08EEF90E0A0E0B0E089839A831C
:10081000AB83BC83E980FA800B811C81A80197011E
:10082000AD80BE80CF80D884E984FA840B851C8596
:1008300060E070E080E090E00E94EB2629013A0140
:100840004B011C01211504E030070BE6400704EFC3
:10085000500704E1600771058105910509F008F46E
:100860007DC089819A81AB81BC810297A109B109C0
:1008700089839A83AB83BC831C012D010B85910175
:10088000A20160E070E080E090E00E94EB26290188
:100890003A014B011C0189819A81AB81BC81992766
:1008A000AA27BB27ED85FE8580839183A283B3832E
:1008B000148215821682178210861186128613867C
:1008C0009201A301B401C10165960FB6F894DEBF91
:1008D0000FBECDBFDF91CF911F910F91FF90EF9091
:1008E000DF90CF90BF90AF909F908F907F906F9050
:1008F0005F904F903F902F90089545E050E060E06A
:1009000070E01D8286ED8E8391E19F83AEE7A8871C
:10091000B3E0B9871A861B861C8667CF0597A105A9
:10092000B10509F066CF16E0E12EF12C00E010E0F1
:10093000E982FA820B831C836DCF46E057E060E0CA
:1009400070E0E0E8ED83F0EFFE830AEF0F8312E042
:10095000188719861A861B861C864BCF2F3F374572
:100960004744584F6D4071058105910511F008F01D
:1009700092CF89819A81AB81BC810296A11DB11D64
:1009800089839A83AB83BC831C012D01AD80BE801B
:10099000CF80D884E984FA840B851C8570CF412CE4
:1009A00063C029813F85488959896A897B898C89F7
:1009B0009D89A0E00E94902809F49FCF1D82B6ED8A
:1009C000BE83E1E1EF83FEE7F88703E009871A863B
:1009D0001B861C86AD80BE80CF80D884E984FA84D3
:1009E0000B851C8529813F85488959896A897B89BE
:1009F0008C899D890E949F2729013A014B011C0186
:100A0000A0E00E94902859F629813F85488959899C
:100A10006A897B898C899D890E94A127022F132FC7
:100A2000242F352FD901C8010697A109B109893FA3
:100A30009105A105B10508F043CF10E030E020E0BA
:100A4000AD85BE850D931D932D933C931397FD01AA
:100A5000148215821682178218961D921D921D927D
:100A60001C921B9744244394512C612C712C812C93
:100A7000912C212C312C24CF29813F8548895989FB
:100A80006A897B898C899D89A0E00E94902809F45D
:100A900054CF10E81D8380EF8E839AEF9F83A2E0EE
:100AA000A887198694CFDF92EF92FF920F931F933E
:100AB000CF93DF93FC01E080F18002811381D48128
:100AC000C581B681D7809701A8016D2F7C2F8B2F10
:100AD0009D2D285938424C415109610971098109FC
:100AE0009109273938424C4151056105710581054D
:100AF000910509F0D0F49701A8016D2F7C2F8B2F61
:100B00009D2D07E00E944528208331834283538333
:100B1000648375838683978387E0DF91CF911F91EC
:100B20000F91FF90EF90DF9008959701A8016D2F2E
:100B30007C2F8B2F9D2D205331454843510961094E
:100B40007109810991092F323145484351056105E9
:100B500071058105910509F098F49701A8016D2FA1
:100B60007C2F8B2F9D2D06E00E944528208331830A
:100B700042835383648375838683978386E0CDCFD6
:100B80009701A8016D2F7C2F8B2F9D2D2056324A67
:100B90004047510961097109810991092F35324A8C
:100BA00040475105610571058105910509F098F4EB
:100BB0009701A8016D2F7C2F8B2F9D2D05E00E94A2
:100BC00045282083318342835383648375838683DE
:100BD000978385E0A2CF9701A8016D2F7C2F8B2FE3
:100BE0009D2D205C3444414E5109610971098109F0
:100BF00091092F3B3444414E510561057105810532
:100C0000910509F098F49701A8016D2F7C2F8B2F87
:100C10009D2D04E00E944528208331834283538325
:100C2000648375838683978384E077CF9701A801D7
:100C30006D2F7C2F8B2F9D2D20583948424C5140D1
:100C400061097109810991092F373948424C514096
:100C5000610571058105910509F098F49701A801D6
:100C60006D2F7C2F8B2F9D2D03E00E944528208324
:100C7000318342835383648375838683978383E0C0
:100C80004CCF9701A8016D2F7C2F8B2F9D2D3351B9
:100C90004548534061097109810991092F3F32414B
:100CA00045485340610571058105910509F098F4A7
:100CB0009701A8016D2F7C2F8B2F9D2D02E00E94A4
:100CC00045282083318342835383648375838683DD
:100CD000978382E022CF9701A8016D2F7C2F8B2F65
:100CE0009D2D36524A405740610971098109910989
:100CF0002F3F35424A4057406105710581059105F6
:100D000009F098F49701A8016D2F7C2F8B2F9D2D52
:100D100001E00E944528208331834283538364830A
:100D200075838683978381E0F8CE80E0F6CE2F929C
:100D30003F924F925F926F927F928F929F92AF926B
:100D4000BF92CF92DF92EF92FF920F931F93CF93B8
:100D5000DF93CDB7DEB76C970FB6F894DEBF0FBE4A
:100D6000CDBF322E3D87242E5E872B013C01A98208
:100D7000BF86C88AD98AEA8AFB8A0C8B1D8B988E1B
:100D80008F8A211501EC30070AE140070DE3500777
:100D900005E0600771058105910509F0A0F52F3781
:100DA00010EF31071AEF410712E051076105710595
:100DB0008105910509F008F4B4C12F3F354D41413B
:100DC0005E47634071058105910509F008F48FC005
:100DD00029813F85488959896A897B898C899D89C0
:100DE000A0E0992493940E94902809F08EC011E00D
:100DF0001E8B94E0892E912CA12CB12C89869A8689
:100E0000AB86BC862FC0312CB1ECBD872AE1222EE7
:100E1000EDE3EE8735E0432E512C612C712CD8CFB9
:100E2000A32CBD84C22CDE847201830120E034E057
:100E30004BE654EF64E170E080E090E00E94A1276F
:100E4000122FB32FF42FE52FA7E00E94902821F452
:100E500016E0B0E0F0E0E0E0CF011987BA879B87A9
:100E6000EC871E8A89849A84AB84BC84A501940192
:100E700060E070E0CB01A32CBD84C22CDE84720143
:100E8000830129833A834B835C836D837E838F83C5
:100E9000988760E070E080E090E00E94EB26298374
:100EA0003F87488B598B6A8B7B8B8C8B9D8B0E89F4
:100EB000C12CD12C7601C39440E050E0BA0101303E
:100EC00009F0A9C0AF89B88D1D921D921D921C9288
:100ED0001397FD01148215821682178281E090E03B
:100EE000A0E0B0E080879187A287B387DEC0298128
:100EF0003F85488959896A897B898C899D89A0E0C9
:100F00000E94902809F48CCF912CA32CBD84C22C74
:100F1000DE847201830129813F85488959896A8964
:100F20007B898C899D890E94A12729873A874B87D5
:100F30005C8729853A854B855C8506E0A02EB12C1F
:100F4000263031054105510568F089859A85AB85C4
:100F5000BC8589309740A105B105D0F0B8E0AB2E33
:100F600017E0B12EC12CD12CE12CF12C00E010E0C7
:100F700029813F85488959896A897B898C899D891E
:100F80000E94A127322E3D87242E5E872B013C0133
:100F9000A32CBD84C22CDE847201830129813F858C
:100FA000488959896A897B898C899D890E949F27F4
:100FB000E0E4AE2EF2E4BF2EAFE0CA2ED12CE12C3D
:100FC000F12C00E010E00E94EB26A32CBD84C22C83
:100FD000DE84720183010E94A127A32FF42FE52F45
:100FE000422F5A2F6F2F7E2FA0E4CA2EA2E4DA2EB2
:100FF000AFE0EA2EF12C411551056105710521F490
:10100000C12CD12C7601C394AA24A3949A1409F478
:101010006DC001E00E8BCB01BA0117E0660F771FA0
:10102000881F991F1A95D1F7A70196010E9499264A
:10103000298F3A8F4B8F5C8F89849A84AB84BC84D0
:1010400007E0880C991CAA1CBB1C0A95D1F79501D6
:10105000840112502109310948015901298D3A8D25
:101060004B8D5C8D280D391D4A1D5B1DAF89B88DD8
:101070002D933D934D935C931397FD01648375838A
:10108000868397831896CD92DD92ED92FC921B9702
:101090008E88882051F039829D849F86288AAE846C
:1010A000A98A4A8A5B8A6C8A7D8A29813F85488918
:1010B00059896A897B898C899D896C960FB6F894C9
:1010C000DEBF0FBECDBFDF91CF911F910F91FF907B
:1010D000EF90DF90CF90BF90AF909F908F907F90D8
:1010E0006F905F904F903F902F900895AF89B88D8B
:1010F0001D921D921D921C921397FD011482158260
:101100001682178281E090E0A0E0B0E080879187AE
:10111000A287B3873982FD85FF87288A8E84898AD2
:10112000C0CF29813F85488959896A897B898C8903
:101130009D89A0E0E0E83E2EF0EFFD87FAEF2F2E2C
:1011400002E00E87412C512C612C712C0E949028BA
:1011500009F0DACE18E0B7E07DCEDF92EF92FF9291
:101160000F931F93CF93DF93FC01E080F180028106
:101170001381D481C581B681D7809701A8016D2FD5
:101180007C2F8B2F9D2D20583A41464051096109F3
:101190007109810991092F373A414640510561058E
:1011A00071058105910509F0D0F49701A8016D2F13
:1011B0007C2F8B2F9D2D07E00E94452820833183B3
:1011C00042835383648375838683978387E0DF91AB
:1011D000CF911F910F91FF90EF90DF9008959701AD
:1011E000A8016D2F7C2F8B2F9D2D35534C4051091D
:1011F00061097109810991092F3F34434C40510520
:10120000610571058105910509F098F49701A80120
:101210006D2F7C2F8B2F9D2D06E00E94452820836B
:10122000318342835383648375838683978386E007
:10123000CECF9701A8016D2F7C2F8B2F9D2D3A5675
:101240004841510961097109810991092F3F3946C6
:1012500048415105610571058105910509F098F432
:101260009701A8016D2F7C2F8B2F9D2D05E00E94EB
:101270004528208331834283538364837583868327
:10128000978385E0A4CF9701A8016D2F7C2F8B2F2A
:101290009D2D345D4043510961097109810991090E
:1012A0002F3F334D4043510561057105810591057F
:1012B00009F098F49701A8016D2F7C2F8B2F9D2D9D
:1012C00004E00E9445282083318342835383648352
:1012D00075838683978384E07ACF9701A8016D2F69
:1012E0007C2F8B2F9D2D385A414651096109710978
:1012F000810991092F3F374A414651056105710522
:101300008105910509F098F49701A8016D2F7C2FB4
:101310008B2F9D2D03E00E9445282083318342833B
:101320005383648375838683978383E050CF9701CB
:10133000A8016D2F7C2F8B2F9D2D3055434C5109CB
:1013400061097109810991092F3F3F44434C5105BF
:10135000610571058105910509F098F49701A801CF
:101360006D2F7C2F8B2F9D2D02E00E94452820831E
:10137000318342835383648375838683978382E0BA
:1013800026CF9701A8016D2F7C2F8B2F9D2D305AD2
:101390004648514061097109810991092F3F3F4930
:1013A00046485140610571058105910509F098F4A1
:1013B0009701A8016D2F7C2F8B2F9D2D01E00E949E
:1013C00045282083318342835383648375838683D6
:1013D000978381E0FCCE80E0FACE82E08093F40532
:1013E00008959B01DC011896ED91FC9141E067E1C5
:1013F0000994AF92BF92CF92DF92EF92FF920F9338
:101400001F93CF93DF936C017B018B01040F151F9A
:10141000EB015E01AE18BF08C017D10759F0699102
:10142000D601ED91FC910190F081E02DC601099566
:10143000892B79F7C501DF91CF911F910F91FF9013
:10144000EF90DF90CF90BF90AF90089508950895EA
:10145000FC01538D448D252F30E0842F90E0821BBA
:10146000930B541710F0CF96089501970895FC013F
:10147000918D828D981761F0A28DAE0FBF2FB11D97
:101480005D968C91928D9F5F9F73928F90E00895EF
:101490008FEF9FEF0895FC01918D828D981731F0A9
:1014A000828DE80FF11D858D90E008958FEF9FEFFD
:1014B0000895FC01918D228D892F90E0805C9F4FD3
:1014C000821B91098F739927089583E293E00E940C
:1014D000590A21E0892B09F420E0822F089580E049
:1014E00090E0892B29F00E94650A81110C9400007C
:1014F0000895FC01A48DA80FB92FB11DA35ABF4FA9
:101500002C91848D90E001968F739927848FA68902
:10151000B7892C93A089B1898C91837080648C9356
:10152000938D848D981306C00288F389E02D808105
:101530008F7D80830895EF92FF920F931F93CF9337
:10154000DF93EC0181E0888F9B8D8C8D98131AC0FE
:10155000E889F989808185FF15C09FB7F894EE89E5
:10156000FF896083E889F989808183708064808342
:101570009FBF81E090E0DF91CF911F910F91FF908D
:10158000EF900895F62E0B8D10E00F5F1F4F0F7335
:101590001127E02E8C8D8E110CC00FB607FCFACFF0
:1015A000E889F989808185FFF5CFCE010E94790A0B
:1015B000F1CFEB8DEC0FFD2FF11DE35AFF4FF082C1
:1015C0009FB7F8940B8FEA89FB8980818062CFCF27
:1015D000CF93DF93EC01888D8823B9F0AA89BB896A
:1015E000E889F9898C9185FD03C0808186FD0DC055
:1015F0000FB607FCF7CF8C9185FFF2CF808185FF76
:10160000EDCFCE010E94790AE9CFDF91CF91089505
:10161000833081F028F4813099F08230A9F0089568
:101620008730A9F08830C9F08430B1F4809180000F
:101630008F7D03C0809180008F7780938000089514
:1016400084B58F7784BD089584B58F7DFBCF80915D
:10165000B0008F778093B00008958091B0008F7DA7
:10166000F9CFCF93DF93282F30E0F901E458FF4FF3
:101670008491F901E057FF4FD491F901E255FF4FF2
:10168000C491CC23A1F081110E94080BEC2FF0E053
:10169000EE0FFF1FEC55FF4FA591B491EC91ED2398
:1016A00081E090E009F480E0DF91CF91089580E03F
:1016B00090E0FACF1F93CF93DF93282F30E0F9010A
:1016C000E458FF4F8491F901E057FF4FD491F9019D
:1016D000E255FF4FC491CC23A9F0162F81110E942F
:1016E000080BEC2FF0E0EE0FFF1FEE58FF4FA59117
:1016F000B4918FB7F894EC91111108C0D095DE2306
:10170000DC938FBFDF91CF911F910895DE2BF8CF2F
:10171000CF93DF9390E0FC01E057FF4F2491825577
:101720009F4FFC0184918823D1F090E0880F991F8E
:10173000FC01E859FF4FA591B491FC01EE58FF4F11
:10174000C591D491623071F49FB7F8943C91822F87
:10175000809583238C93E8812E2B28839FBFDF9174
:10176000CF9108958FB7F894EC912E2B2C938FBFC7
:10177000F6CF3FB7F8948091960290919702A0918E
:101780009802B091990226B5A89B05C02F3F19F089
:101790000196A11DB11D3FBFBA2FA92F982F8827F1
:1017A000BC01CD01620F711D811D911D43E0660FCB
:1017B000771F881F991F4A95D1F708950895DC0176
:1017C0001A96ED91FC9130E020E00994DC01169628
:1017D000ED91FC9130E020E040E069E10994DC010A
:1017E0001696ED91FC9130E020E040E068E109942C
:1017F0009A01DC011696ED91FC91462F67E1099460
:10180000EF92FF920F931F93CF93DF931F92CDB769
:10181000DEB77C018B01D8016C91673129F150F45E
:101820006531A0F40F90DF91CF911F910F91FF9040
:10183000EF9008956A3118F16E3FA1F7F8014181E8
:10184000498369E2C7010E94DF0B0BC0F8014181A7
:101850004983D7011696ED91FC9130E020E0C70155
:1018600009950E5F1F4FD7CFF80181818983AE01A3
:101870004F5F5F4F61E0C7010E94F80BF2CF0F5F2F
:101880001F4FD7011696ED91FC9130E020E040E02B
:10189000C7010995C0CF462FDC011696ED91FC914A
:1018A00030E020E066E10994462FDC011696ED91C8
:1018B000FC9130E020E065E10994EF92FF920F93F4
:1018C0001F93CF93DF93EC01042F79016D3009F45E
:1018D00046C050F46B30C9F1693009F49FC06A30DA
:1018E00009F465C080E046C06E3009F452C06F3024
:1018F00099F70E94EF0BF7011381110F110F110FD0
:101900006C89160F60E4CE010E94540C612F629521
:101910006F706061CE010E94540C612F6F70CE0118
:101920000E944B0CF7016481606BCE010E944B0C4E
:10193000F701408151816281660F660F660FCE010B
:101940000E94F80B0150A1F72EC06DE171E0442315
:1019500011F068E171E0CE010E94000C0AC0411153
:1019600010C061E171E00E94000CE881F981828978
:101970008C8B81E0DF91CF911F910F91FF90EF90C1
:1019800008956AE071E00E94000CE881F981838982
:10199000EFCF0E94EF0B61E8CE010E94540C602F44
:1019A000CE010E944B0CCE010E94E60BE2CFEA85ED
:1019B000FB8530E020E040E068E2CE010995EE8151
:1019C000FF8130E020E040E064E1CE01099541E094
:1019D0006BE4CE010E94DF0BE881F981448169E26A
:1019E000CE010E94DF0B40E06BE4CE010E94DF0BD2
:1019F000E881F981448169E2CE010E94DF0B41E078
:101A00006BE4CE010E94DF0BE881F981458169E238
:101A1000CE010E94DF0B62E271E09DCF87E591E08D
:101A2000998388831C8AA5CFDC011896ED91FC91DF
:101A300030E020E040E069E10994DC011896ED9186
:101A4000FC9130E020E040E068E10994CF93DF931F
:101A50001F92CDB7DEB76983BE016F5F7F4F0E94D3
:101A6000F1090F90DF91CF910895EF92FF921F93AC
:101A7000CF93DF93EC01162F7A010E941D0D60E4D5
:101A8000CE010E94260DE885F9859701412F67E177
:101A9000CE010995CE01DF91CF911F91FF90EF907C
:101AA0000C94140DEF92FF921F93CF93DF93EC01F0
:101AB000142F7901663181F138F4643109F44BC097
:101AC000653179F080E022C06831C9F150F16931A7
:101AD000C9F780919002882391F1CE010E94140DE4
:101AE0002EC080919002882319F0CE010E94140D1F
:101AF000CE010E941D0D60E0CE010E94260D612FD7
:101B0000CE010E94260D81E080939002DF91CF915B
:101B10001F91FF90EF900895642F0E94260D81E0A1
:101B2000F5CF80919002882319F0CE010E94140D08
:101B3000A701193138F4612FCE010E94350D1092A2
:101B40009002EDCF68E1CE010E94350D185188E179
:101B5000E80EF11CEDCF8E898F3F11F488E78E8B54
:101B6000E885F9859701412F64E1CE01DF91CF919E
:101B70001F91FF90EF9009940F93DC01DE963C914A
:101B8000DE97431BD496ED91FC9109950F91089532
:101B9000CF93DF93FC01A081B18182AD982F990F83
:101BA000990F990F95AF50969C915097903208F0ED
:101BB0009FE1990F990F990F94AF23AD922F990F31
:101BC000990F990F96AF51963C915197682F620FDC
:101BD0007727771F3617170614F4832F821B97AFCA
:101BE000EF01C05CDF4F880F880F880F890F888353
:101BF000219680EF888354968D919C915597813FD3
:101C0000910508F48883EE5BFF4F56968C91808394
:101C1000DF91CF9108950F93FC01EB5BFF4F308173
:101C200031965081451730F4301738F0041728F0FA
:101C300080E013C03017D0F3FBCFFC01ED5BFF4F0A
:101C400030818C5B9F4FFC018081681740F481E0FC
:101C5000321718F081E0261758F70F9108953217C0
:101C6000C8F3E6CF2F923F924F925F926F927F928E
:101C70008F929F92AF92BF92CF92DF92EF92FF929C
:101C80000F931F93CF93DF93EC014C0183E4880EF5
:101C9000911CF4011082329720805E01F4E4AF0EB3
:101CA000B11CF50120823FAC6E01F5E4CF0ED11CD2
:101CB000F6013082359740807E01F6E4EF0EF11C8C
:101CC000F70140823496108132976080319670809F
:101CD00032975080012F262D472D652DCE010E9471
:101CE0000B0ECD58DF4F811114C01882DF91CF91B8
:101CF0001F910F91FF90EF90DF90CF90BF90AF902A
:101D00009F908F907F906F905F904F903F902F901B
:101D1000089581E08883552011F0F4015082621407
:101D200010F4F5016082371410F4F6017082141576
:101D3000E8F6F7011083DACF0F93DC01802FFD0165
:101D4000ED58FF4F90819923E9F12223D9F12230F8
:101D500020F0023079F56F5F621B082F0170FD01E2
:101D600080FD32C0EB5BFF4F8081481758F1319600
:101D70008081481738F53297908131978081260FFE
:101D80002617F0F46917D8F42FEF290F8217D0F433
:101D9000681708F4682F291708F4922F961BD69617
:101DA000ED91FC91D7970480F581E02D292FCD018D
:101DB000099508C0033089F64F5F421BCECF682FCC
:101DC000691720F30F910895ED5BFF4F808168172D
:101DD000C8F3319680816817A8F7329690813197C1
:101DE0008081240F241778F4491760F42FEF290F0E
:101DF000821740F7481708F4482F291708F4922F44
:101E0000941BCDCF482F4917E8F6F2CF213039F097
:101E100020F0223031F0840F0895860F0895841B3E
:101E20000895861B0895213039F020F0223031F0DA
:101E3000861B0895840F0895860F0895841B0895C6
:101E40005F926F927F928F929F92AF92BF92CF924A
:101E5000DF92EF92FF920F931F93CF93DF935C017A
:101E6000162F642EEC01C15BDF4FDC80ED804C014E
:101E700089E7880E911CFE80FD18C12EF11608F42A
:101E8000CF2C5B800C85202F4E2D6D2D8A810E94DA
:101E9000060F782E202F4E2D6D2D852D0E94130FAD
:101EA000482F662071F08A85F40180832C2D672DE0
:101EB000C5010E949C0E1F1548F01F19E394D12CF8
:101EC000DACF89858111F7CF8B85EECF1D0D1C836D
:101ED000ED82DF91CF911F910F91FF90EF90DF90F6
:101EE000CF90BF90AF909F908F907F906F905F90BA
:101EF0000895DC0118964C911897ED91FC9111977B
:101F0000249130E0042E02C0359527950A94E2F71B
:101F1000842F860F883068F031961196FC93EE93EB
:101F2000E49198E0941B01C0EE0F9A95EAF72E2BEE
:101F3000885018968C938FEF9FEF01C0880F6A9599
:101F4000EAF7809582230895FC01E60FF11D849144
:101F500090E0982F88273196E4918E0F911D089577
:101F60006F927F928F929F92AF92BF92CF92DF92A9
:101F7000EF92FF920F931F93CF93DF93EC01062F05
:101F8000142F7901FC01E55AFF4F8081813009F45B
:101F900045C0D0F1823009F44BC0833009F452C0FF
:101FA000FE01EF5AFF4F00833196108337978081EF
:101FB000918147962FEFE216F10411F008F0E6C088
:101FC000E1E6EE16F10408F447C0FE01E159FF4FC7
:101FD00020813181820F931F9C012F5F3F4FF901B8
:101FE0004491411142C0712C872DDF91CF911F91F7
:101FF0000F91FF90EF90DF90CF90BF90AF909F90A8
:102000008F907F906F900895FE01E35BFF4F0190EA
:10201000F081E02DCE010995180FC2CFFE01E35BE0
:10202000FF4F0190F081E02DCE010995081BB8CF3C
:10203000FE01E35BFF4F0190F081E02DCE01099599
:10204000181BAECFFE01E35BFF4F0190F081E02D46
:10205000CE010995080FA4CFF1E4EF16F10408F4BE
:10206000BBCFFE01E359FF4FB3CFFC0144914E15A6
:102070001F0409F086C00296009709F4B4CF7E01D0
:10208000FFE4EF0EF11CF7019183808310867196B7
:102090006081C7010E94790FF70186837296608183
:1020A000C7010E94790FA82EF70187836E01F9E717
:1020B000CF0ED11CF6019081F701928781E091113A
:1020C00080E0F7018387FE01EE59FF4FB0806B2D52
:1020D000C7010E94790F882EFE01ED59FF4F108134
:1020E000612FC7010E94790F982EFE01EC59FF4F16
:1020F0000081602FC7010E94790F015041E050E03C
:102100009A0101C0220F0A95EAF7782E721AF70198
:10211000068110160CF068CFBA94CA0101C0880F6E
:10212000BA94EAF7881AB4849A0C115001C0440F8B
:102130001A95EAF7F42FF9199F2E2B2D4F2F682DA2
:10214000F70182810E94060F182FF70182832B2D41
:10215000492D682D83810E94130FF7018383F1E0DD
:10216000BF1609F47CC0BF1608F43FC022E0B216C7
:1021700009F47BC093E0B91609F482C0082F212F1F
:1021800038C0F9012491820F911D26CFFE01EF582E
:10219000FF4F00811181080F191F680160E0C6011F
:1021A0000E94A40F080F191F62E0C6010E94A40F2D
:1021B000F4E0CF0ED11C8E159F0580F3F8018491B9
:1021C00090E0982F88273196E4918E2B009709F4A0
:1021D0000ACFE816F90619F4C80103964DCFF801A5
:1021E0003296E4910E0F111DE9CF202F210F082FF9
:1021F0000A0D482F612FCE010E940B0E882309F48F
:10220000F3CEF701148215828E01025A1F4F4E0140
:10221000FFE58F0E911CF8016081C7010E94790FC4
:10222000682EF4016081C7010E94790FB82E40E04A
:10223000662DCE010E94200F41E06B2DCE010E9441
:10224000200F61E0C7010E94790F8111F0CFF701E3
:1022500085818A1504F38285F6018083C5CEBA187C
:1022600021E0210F080F1B0DC4CF91E0392F301B47
:1022700021E0210F9A1901E0080F890F130FB9CF40
:10228000212F2A0D982F901B01E0080F81E0890F64
:10229000B0CFFF920F931F93CF93DF93D82F10925D
:1022A00093058B01F12CC0E0F80161918F01E09161
:1022B0007D05F0917E058BE795E009958F3F9807A6
:1022C000F1F08E3F2FEF920779F39C014D2F6C2F89
:1022D0008BE795E00E94B00F9091D605913049F0C0
:1022E00030F0923041F0933041F0F80EDDCFC80F5E
:1022F000FCCFD80FFACFC81BF8CFD81BF6CF8F2D45
:10230000DF91CF911F910F91FF900895CF93DF93AD
:10231000EC016BAFEEA9FFA90190F081E02D0995CA
:10232000EEA9FFA90280F381E02DCE01DF91CF91CC
:102330000994AF92BF92CF92DF92EF92FF920F93E8
:102340001F93CF93DF9300D000D01F92CDB7DEB79D
:102350008C01DC01DA96AC90DA97DB96EC90DB9797
:10236000ED91FC91B188FE2CD12CC12CD801ED91BE
:10237000FC9111978089D8962D913C911C82FD8209
:102380008B83B8E08B9FC00111248C9DA0018D9D93
:10239000500D9C9D500D1124240F351F3A83298325
:1023A000D8011496ED91FC919E012F5F3F4F41E0C3
:1023B0006FE0C8010995F3948F2D8E198A1528F4C2
:1023C000BFEFCB1ADB0AFB1488F20F900F900F902F
:1023D0000F900F90DF91CF911F910F91FF90EF9091
:1023E000DF90CF90BF90AF9008958F929F92AF9261
:1023F000BF92CF92DF92EF92FF92CF93DF937C0157
:10240000C62F6C32B0F46A32E8F5683249F16932AD
:1024100009F444C080E0C034B0F1CF73F701EC0F91
:10242000F11D868D8F3F71F1C03108F066C0642FB9
:1024300014C06D3209F456C068F384EB860F823005
:1024400048F7CF73CE0DDF2DD11D8E8D411151C0B8
:1024500061E00E94880B60E08E8D0E945A0B12C0D2
:102460002EE1E20EF11CD0E0F70181917F018F3F58
:1024700031F061E0D03108F062E00E94880BDF5F4C
:10248000D63191F781E0DF91CF91FF90EF90DF900F
:10249000CF90BF90AF909F908F900895C42ED12C75
:1024A000F12CE12C0E94B90B4B015C01C114D10449
:1024B000E104F10439F30E94B90B681979098A091A
:1024C0009B09683E73408105910580F3F1E0CF1AC6
:1024D000D108E108F10828EE820E23E0921EA11C2B
:1024E000B11CE4CF433070F686E090E00197F1F73D
:1024F000C9CF62E00E94880BC5CF0E94310B21E05A
:10250000892B09F420E0F701218FBCCF20916D02C7
:10251000260F3327331F21323105ECF42091F902C5
:10252000FC0190E080E0243069F082E00895A09101
:102530006D022191AC01435B5D4FA40FB52FB11D1E
:102540002C930196861798F380916D02680F609323
:102550006D0280E0089581E008951092F90281E013
:102560008093F8021092D30261E082E10E945A0B3C
:1025700061E083E10E945A0BE9EBF0E080818E7FFD
:10258000808380818D7F808380E28093B80085E4A2
:102590008093BC000895CF93DF9391E090934C0219
:1025A0008823B9F0C091B800D091BA008091BC00E6
:1025B0008A7B8093BC0060E082E10E945A0B60E05D
:1025C00083E10E945A0B0E94AD12D093BA00C093CF
:1025D000B800DF91CF9108958F929F92AF92BF92F2
:1025E000CF92DF92EF92FF920F931F93CF93DF93DF
:1025F000D0912203D13208F0D7C0182FC091210307
:102600000E94B90B6B017C018091F90281116BC0B2
:1026100082E08093F9021093F8028FEF8093F70223
:102620001092F602D093F502A1E0B3E0E5EDF2E0FE
:1026300080E0D81391C01092D4028091D402CC0FC4
:10264000C82BC093D4028091D302813009F088C096
:102650001092D3020E94B90B6B017C018091D402CD
:102660008093BB008091FB029091FC02A091FD023F
:10267000B091FE02892B8A2B8B2BA1F00E94B90B03
:102680000091FB021091FC022091FD023091FE02AC
:102690006C197D098E099F09061717072807390746
:1026A00008F442C08091BC0083FDD8CF85EC8093B4
:1026B000BC000E94B90B6B017C018091F902823051
:1026C00009F450C08091F7028F3F09F46FC08091E8
:1026D000F702803209F46CC08091F702803309F46C
:1026E00069C084E026C08091FB029091FC02A09119
:1026F000FD02B091FE02892B8A2B8B2B09F484CF2B
:102700000E94B90B8090FB029090FC02A090FD0209
:10271000B090FE026C197D098E099F0986169706F6
:10272000A806B90608F070CF8091FA020E94CB1279
:1027300085E010920003109222031092FF02DF91B5
:10274000CF911F910F91FF90EF90DF90CF90BF90AE
:10275000AF909F908F9008959D9191938F5F69CFD7
:1027600085EEA5CF8091FB029091FC02A091FD0225
:10277000B091FE02892B8A2B8B2B09F49ECF0E94ED
:10278000B90B0091FB021091FC022091FD023091E7
:10279000FE026C197D098E099F0906171707280785
:1027A000390708F08ACFC0CF81E0C3CF80E0C1CF26
:1027B00082E0BFCF83E0BDCF0895E091B202809167
:1027C000B102E81730F4F0E0ED54FD4F808190E065
:1027D00008958FEF9FEF08959091B2028091B1021A
:1027E0002FEF3FEF981748F4E92FF0E0ED54FD4F3D
:1027F000208130E09F5F9093B202C9010895CF928B
:10280000DF92EF92FF920F931F93CF93DF937C01A0
:10281000CB018A012091FF02222389F0EB016B0199
:10282000C40ED51ECC15DD0569F06991D701ED9177
:10283000FC910190F081E02DC7010995F3CF642F41
:102840000E948612C801DF91CF911F910F91FF90D6
:10285000EF90DF90CF900895CF93DF93EC01962F08
:10286000683109F445C0B901993130F4943199F0D7
:10287000973159F080E006C0993109F45BC090327D
:10288000C9F781E0DF91CF91089550E080EC93E0AB
:102890000E94FF13F6CF8C859D85AE85BF85892B61
:1028A0008A2B8B2B71F4E881F981A585B0E020EAB1
:1028B00036E841E050E00E94E0266C877D878E87F5
:1028C0009F871092B2021092B102109200031092F0
:1028D00022030E94AD1286E29AE090939B028093BD
:1028E0009A0287E29AE090939D0280939C02C9CF5E
:1028F0002C853D854E855F8560E072E18AE790E03A
:102900000E94992620513109410951095695479550
:10291000379527952093B8008E8990E095958795F7
:1029200091E09093FF028093210310920003109294
:102930002203A7CF81E00E94EC12A3CFCF93DF93B5
:102940001F92CDB7DEB769832091FF022223F9F0F1
:1029500020912203203258F021E030E0FC01338343
:10296000228390E080E00F90DF91CF9108958091D5
:102970000003E82FF0E0EF5FFC4F998190838F5FB9
:10298000809300038093220381E090E0ECCF61E02C
:10299000CE0101960E948612F7CFCF93C62F909159
:1029A000620521E02093FF0290932103109200031F
:1029B00010922203682F80EC93E00E949E146C2FEB
:1029C00080EC93E00E949E1481E0CF910C94EC1275
:1029D000EF92FF920F931F93CF93DF93062F7A010D
:1029E0009091620521E02093FF02909321031092C1
:1029F000000310922203682F80EC93E00E949E1443
:102A0000E70110E0CE018E199F098017910734F479
:102A1000699180EC93E00E949E14F4CF81E0DF91F5
:102A2000CF911F910F91FF90EF900C94EC12FC014D
:102A30008091B002882391F0908118164CF49F5F2A
:102A4000691714F090830895442339F060E005C0BD
:102A5000915097FFF7CF4423C9F360830895DC01B9
:102A6000ED91FD918081ED91FD919081ED91FD9130
:102A70006C9163708E2309F064609F2309F0686095
:102A8000ECE4F5E1E60FF11D659565956D936D91AB
:102A90007D918D919D91099423C01AC012C016C0DA
:102AA00010C01EC009C014C013C006C019C009C0A0
:102AB0000DC007C00DC014C06250704080409040EF
:102AC0000BC0615070408040904006C06E5F01C0F6
:102AD0006F5F7F4F8F4F9F4F9E938E937E936E932A
:102AE00008958091CC039091CD030C942F15809183
:102AF000CE039091CF030C942F15CF92DF92EF92DB
:102B0000FF920F931F93CF93DF936C01EB017B0137
:102B1000E40EF51E10E000E0CE15DF0561F06991CE
:102B2000D601ED91FC910190F081E02DC60109954F
:102B3000080F191FF1CFC801DF91CF911F910F919D
:102B4000FF90EF90DF90CF900895CF92DF92EF92B9
:102B5000FF920F931F93CF93DF93EC016C0124E05E
:102B6000C20ED11CFC01E158FF4F0190F081E02D15
:102B7000C60109958E3FEFEF9E07C8F48E010E57F0
:102B80001F4F7E01F1E8EF0EF11C9C01F80140811E
:102B9000F7016081C6010E94B00FC15ADF4F9881D2
:102BA0009130A9F078F09230A1F09330B9F081E043
:102BB00090E0DF91CF911F910F91FF90EF90DF9008
:102BC000CF900895F7019081890F8083F0CFF801AD
:102BD000FACFF7019081981B892FF7CFF801FACF30
:102BE000089590E080E00895CF92DF92EF92FF92F7
:102BF0000F931F93CF939091620521E02093FF02E2
:102C0000909321031092000310922203682F80EC0E
:102C100093E00E949E1481E00E94EC12C091620534
:102C20000E94B90B6B017C018091F902811165C092
:102C300081E08093F9021092F8029FEF9093F702DF
:102C40001092F6021092F5028093D4028091D40281
:102C5000CC0FC82BC093D4028091D302813009F0ED
:102C600080C01092D3020E94B90B6B017C0180914D
:102C7000D4028093BB008091FB029091FC02A09152
:102C8000FD02B091FE02892B8A2B8B2BA1F00E94B2
:102C9000B90B0091FB021091FC022091FD023091D2
:102CA000FE026C197D098E099F0906171707280770
:102CB000390708F443C08091BC0083FDD8CF85EC70
:102CC0008093BC000E94B90B6B017C018091F902DA
:102CD000813009F448C08091F602C1E0811102C040
:102CE000C091F602E5EDF2E0A3EBB2E080E08C17D4
:102CF00051F191919D938F5FFACF8091FB0290915A
:102D0000FC02A091FD02B091FE02892B8A2B8B2B35
:102D100009F48ACF0E94B90B0091FB021091FC02CA
:102D20002091FD023091FE026C197D098E099F09E8
:102D3000061717072807390708F076CF8091FA029F
:102D40000E94CB12C0E01092B202C093B10280E0A8
:102D50009091B202C91749F180EC93E00E94EC1304
:102D6000F7CF85EEADCF8091FB029091FC02A09150
:102D7000FD02B091FE02892B8A2B8B2B09F4A6CF82
:102D80000E94B90B0091FB021091FC022091FD0200
:102D90003091FE026C197D098E099F0906171707ED
:102DA0002807390708F092CFC9CFCF911F910F9113
:102DB000FF90EF90DF90CF900895CF93DF93D82FBF
:102DC000C62F83E00E94F41561E070E001C0660F39
:102DD000DA95EAF7C13039F46095682383E0DF9132
:102DE000CF910C94CD14682BF9CF1F93CF93DF9321
:102DF000C62F142F8D589E4FFC01D0818D2F0E941D
:102E0000F415837811118C60F0E1CF9FB00111248B
:102E1000682B8D2FDF91CF911F910C94CD14CF9300
:102E2000DF93D62FC0E1C80F8C2F0E94F415682FB6
:102E3000D13031F460648C2FDF91CF910C94CD149C
:102E40006F7BF9CF1F93CF93DF93EB0110E1180F46
:102E5000812F0E94F415682F6C7FC230D10561F07C
:102E6000C330D10559F0219709F46160812FDF91BA
:102E7000CF911F910C94CD146260F8CF6360F6CFB0
:102E8000FF920F931F93CF93DF93EC018B01F82EEA
:102E900080E1F80E8F2D0E94F415682F01151105A1
:102EA00081F46F7D8F2D0E94CD14CC0FDD1FCC518E
:102EB000DB4F1A870987DF91CF911F910F91FF9008
:102EC00008956062EFCFFC0101900020E9F731978F
:102ED000AF01481B590BBC0183E293E00C94F90944
:102EE0008F929F92AF92BF920F931F93CF93DF93D6
:102EF000CDB7DEB7A1970FB6F894DEBF0FBECDBF3A
:102F000019A2423008F44AE08E010F5D1F4F842E53
:102F1000912CB12CA12CA50194010E949926E62F99
:102F2000B901CA01EA30F4F4E05DD801EE938D01F5
:102F3000232B242B252B79F790E080E0109719F0B4
:102F4000CD010E946317A1960FB6F894DEBF0FBEA5
:102F5000CDBFDF91CF911F910F91BF90AF909F9008
:102F60008F900895E95CE1CFCF93DF930E946317C0
:102F7000EC0181EB91E00E9463178C0F9D1FDF91A4
:102F8000CF9108952F923F924F925F926F927F92CE
:102F90008F929F92AF92BF92CF92DF92EF92FF9269
:102FA0000F931F93CF93DF93CDB7DEB72D970FB657
:102FB000F894DEBF0FBECDBF3C01C982DA82EB823E
:102FC000FC820D831E832F83388749875A876B873E
:102FD0007C87BAA03C2C2D2C5E2C0D87412E922E86
:102FE000C984DA84EB84FC8484E190E00E94AB28FD
:102FF0008C01FC01D082C182862D880F880F880F3A
:10300000845D0E94F415F52DF3705F2E8C7F582A95
:10301000F8015282238234828CE0F694E794D794AC
:10302000C7948A95D1F7FC2DF07FCF2E892D8F7014
:10303000C82AF801C58246828D85878393E0691688
:10304000710409F46CC0A8F5F1E06F16710409F47D
:1030500048C082E06816710409F452C0A80168E013
:103060008AE20E94E8146A2D90E080E00E940F1727
:103070004B2D682D90E080E00E94F516C8012D963A
:103080000FB6F894DEBF0FBECDBFDF91CF911F9179
:103090000F91FF90EF90DF90CF90BF90AF909F90F7
:1030A0008F907F906F905F904F903F902F900C94F7
:1030B000472994E06916710409F440C0E5E06E16F2
:1030C000710461F6A80168E082E50E94E8146A2DA7
:1030D00085E090E00E940F174B2D682D85E090E071
:1030E000CBCFA80168E082E30E94E8146A2D81E05A
:1030F00090E00E940F174B2D682D81E090E0BCCF2F
:10310000A80168E08AE30E94E8146A2D82E090E05A
:103110000E940F174B2D682D82E090E0ADCFA801E3
:1031200068E082E40E94E8146A2D83E090E00E9447
:103130000F174B2D682D83E090E09ECFA80168E02B
:103140008AE40E94E8146A2D84E090E00E940F1740
:103150004B2D682D84E090E08FCF2F923F924F92BD
:103160005F926F927F928F929F92AF92BF92CF9217
:10317000DF92EF92FF920F931F93CF93DF93CDB720
:10318000DEB72E970FB6F894DEBF0FBECDBF190184
:103190003A014B018D879E872801012B09F073C0EE
:1031A000E0914D05F0914E05EE0FFF1FEE0FFF1F52
:1031B000E75AFA4FA080B180C280D380CE01019639
:1031C0007C0189019301AB016D857E8590E080E0F3
:1031D0000E949C0184E190E00E94AB288C018985CB
:1031E0009A85AB85BC85F8019083818339814A81BA
:1031F0002B8123702283438334832CE0B695A795DB
:10320000979587952A95D1F7807F2D813E819F8163
:103210009F70892B8583368327834114510409F0DD
:103220004BC0A80168E08AE10E94E81420923D05A5
:1032300030923E0560923F057092400580924105B4
:1032400090924205FD85F09343058E858093440559
:10325000C8012E960FB6F894DEBF0FBECDBFDF912A
:10326000CF911F910F91FF90EF90DF90CF90BF9083
:10327000AF909F908F907F906F905F904F903F9016
:103280002F900C944729E0914F05F0915005EE0FD7
:10329000FF1FEE0FFF1FE75AFA4FA080B180C280D8
:1032A000D380FE0131967F0181019A01AB016D85CA
:1032B0007E8581E090E08CCF4A94452849F6A801AC
:1032C00068E082E20E94E8142092450530924605AB
:1032D00060924705709248058092490590924A0590
:1032E000ED85E0934B05FE85F0934C05B1CF2F9211
:1032F0003F924F925F926F927F928F929F92AF9286
:10330000BF92CF92DF92EF92FF920F931F93CF93D2
:10331000DF93CDB7DEB7E5970FB6F894DEBF0FBEEB
:10332000CDBFE22E29A3F32E3AA34BA35CA36DA33A
:103330007EA38FA398A7702E612E9701AFEF0E94F6
:1033400084282E373A4146405105610571058105B3
:10335000910509F058F480E889A38AE18AA386E000
:103360008BA31CA21DA21EA21FA218A629A13AA1CE
:103370004BA15CA16DA17EA18FA198A52115314C17
:103380004A415D43654071058105910569F060F032
:1033900019A281EC8AA38AE18BA38DE38CA385E03B
:1033A0008DA31EA21FA218A6D9A04AA05BA0ACA004
:1033B000EDA0FEA00FA118A5272C362C2D2D342D05
:1033C000452D5A2DB701C8012115344E4B405445A7
:1033D000624071058105910509F008F425C1ADEF42
:1033E0004A2EA4E05A2E24EE34E03AA729A78901F8
:1033F000F201D12CC101880F991FDC01A351BB4FF1
:103400007D01208131814281538164817581868172
:10341000978138962115344E4B40544562407105D2
:103420008105910571F068F0D71459F0D80119960B
:103430002D913C91D7018D919C912817390709F462
:103440006AC1D3940E5F1F4FB6E0DB12DACF810161
:103450000D591A4FF8018081811108C061E0872D54
:10346000962D0E94DD1681E0D8018C9329A13AA106
:103470004BA15CA16DA17EA18FA198A5D101E3E034
:10348000AA0FBB1FEA95E1F7AC51BB4FFD0179963E
:1034900059962C9331834283538364837583868347
:1034A0009783FE013D964F01A12CB12CC12CD12C4C
:1034B000E12CF12C00E010E00E9497062BA73CA71E
:1034C0004DA75EA76FA778AB89AB9AABC101880FF8
:1034D000991F9C012C513B4F7901D90119960D91EF
:1034E0001C912BA53CA589A99AA90E94AD18712C05
:1034F000612CF7013996FDABECABD201AC90119683
:10350000EC9011971296FC90129713960C911397CA
:1035100014961C9114971596BC91F201D680C78021
:10352000F8E04F0E511C2A2D3E2D4F2D502F612FAC
:103530007B2F8D2D9C2DA0E00E94902809F455C072
:10354000E9A5FAA521853285ECA9FDA980819181A3
:103550002817390709F049C0A98EEA8EFB8E0C8F17
:103560001D8FBE8FDF8EC8A2CE0149960E94AD0886
:103570008BAB298D3A8D4B8D5C8D6D8D7E8DCE0103
:1035800001964C01ABA4BCA4CDA4DEA4EFA4F8A882
:1035900009A91AA98F8D98A10E949706AA24A3941D
:1035A000298D3A8D4B8D5C8D6D8D7E8D8F8D98A183
:1035B0002F3F354D41415E476340710581059105BF
:1035C00009F008F4A12CAF928BA8C980DA80EB80B7
:1035D000FC800D811E812F81388549855A856B8538
:1035E0007C85C3010E94C2170F90BFEF6B1A7B0A44
:1035F000E9A5FAA53296FAA7E9A7F6E06F167104D5
:1036000009F07BCFF101EE0FFF1FEC51FB4F8185DD
:10361000928560E2009719F0019721F460E881EB50
:103620000E94CD1480E078C0D10193E0AA0FBB1FA7
:103630009A95E1F7AC51BB4FFD0179965996DC9212
:1036400041825282A382E482F5820683178381013C
:103650000D591A4FD8018C91811108C061E0872D56
:10366000962D0E94DD1681E0F8018083CE018196BF
:103670000E94AD08582EF101EE0FFF1FEC51FB4FD9
:103680000184F285E02D29A13AA14BA15CA16DA195
:103690007EA18FA198A5EF2B51F5A0903D05B0908C
:1036A0003E05C0903F05D0904005E0904105F09068
:1036B00042050091430510914405DE011D964D0120
:1036C0000E9497061F92852CA12CCD84DE84EF8466
:1036D000F88809891A892B893C894D895E896F8907
:1036E000788D872D962D0E94C2170F909BCFA090AA
:1036F0004505B0904605C0904705D0904805E0903C
:103700004905F0904A0500914B0510914C05FE01CA
:103710003D964F01D5CF81E0E5960FB6F894DEBF18
:103720000FBECDBFDF91CF911F910F91FF90EF9012
:10373000DF90CF90BF90AF909F908F907F906F90D1
:103740005F904F903F902F9008958F929F92AF92ED
:10375000BF92CF92DF92EF92FF920F931F93CF937E
:10376000DF93CDB7DEB760970FB6F894DEBF0FBE1C
:10377000CDBFFC014B0120813181428153816481A5
:10378000758184E6A82EB12CC12CD12CE12CF12C12
:1037900000E010E0868197810E9470275F934F932D
:1037A0003F932F9384EB91E09F938F93CE010196EB
:1037B0009F938F930E94D7298981F40180838A8106
:1037C00081838B8182830FB6F894DEBF0FBECDBF9D
:1037D000803209F08EE2F40183838C8184838D81B1
:1037E00085838E818683803209F08CE2F4018783A1
:1037F0008F818087888581878985828713866096F7
:103800000FB6F894DEBF0FBECDBFDF91CF911F91F1
:103810000F91FF90EF90DF90CF90BF90AF909F906F
:103820008F900895FC01A081B18150962C9182ADBA
:1038300038E0839FC0011124289FA001299F500DCB
:10384000112470E060E080AD91AD0C94D0291F93FD
:10385000CF93DF93EC010E9499111BAD8AAD180F35
:10386000E881F9818189181768F0EC81FD8130E0E9
:1038700020E040E060E1CE01099580E0DF91CF914A
:103880001F910895FE01E658FF4F8081882319F0AB
:10389000CE010E94121C612FCE010E94861181E090
:1038A000EDCFCF93DF93EC01FC01E658FF4F808111
:1038B000882319F0CE010E94121C60E0CE01DF9136
:1038C000CF910C94861185ED8093BC008091FB0212
:1038D0009091FC02A091FD02B091FE020796A11DFD
:1038E000B11D23E0B695A795979587952A95D1F7B1
:1038F0002091BC0024FD03C01092F902089540916C
:10390000FB025091FC026091FD027091FE02452B7A
:10391000462B472B69F30097A105B10541F02AE139
:103920002A95F1F700C00197A109B109E1CF809173
:10393000FA020C94CB121F920F920FB60F92112421
:103940002F933F934F935F936F937F938F939F93A7
:10395000AF93BF93EF93FF9383E293E00E94790AC2
:10396000FF91EF91BF91AF919F918F917F916F9157
:103970005F914F913F912F910F900FBE0F901F902D
:1039800018951F920F920FB60F9211242F938F93B9
:103990009F93EF93FF93E0913303F0913403808181
:1039A000E0913903F0913A0382FD1BC09081809130
:1039B0003C038F5F8F7320913D03821741F0E091AC
:1039C0003C03F0E0ED5DFC4F958F80933C03FF914D
:1039D000EF919F918F912F910F900FBE0F901F909D
:1039E00018958081F4CF1F920F920FB60F92112479
:1039F0002F933F938F939F93AF93BF9380919202A6
:103A000090919302A0919402B0919502309191020D
:103A100026E0230F2D3758F50296A11DB11D2093E6
:103A200091028093920290939302A0939402B09398
:103A300095028091960290919702A0919802B09180
:103A400099020196A11DB11D809396029093970251
:103A5000A0939802B0939902BF91AF919F918F91DB
:103A60003F912F910F900FBE0F901F90189529E84E
:103A7000230F0396A11DB11DD2CF1F920F920FB637
:103A80000F9211242F933F934F935F936F937F93E4
:103A90008F939F93AF93BF93EF93FF93E0910201B6
:103AA000F09103010995FF91EF91BF91AF919F9123
:103AB0008F917F916F915F914F913F912F910F90D7
:103AC0000FBE0F901F9018951F920F920FB60F9276
:103AD00011242F933F934F935F936F937F938F9313
:103AE0009F93AF93BF93EF93FF93E0910001F09109
:103AF00001010995FF91EF91BF91AF919F918F9136
:103B00007F916F915F914F913F912F910F900FBED9
:103B10000F901F9018951F920F920FB60F921124BD
:103B20002F933F934F935F936F937F938F939F93C5
:103B3000AF93BF93EF93FF938091B900887F803656
:103B400009F44AC0F0F5883209F4A7C018F58031AD
:103B500009F49BC0B8F4882309F4F9C0883009F44B
:103B600094C0FF91EF91BF91AF919F918F917F9101
:103B70006F915F914F913F912F910F900FBE0F90DA
:103B80001F901895883109F488C0803251F78093CE
:103B9000F70214C0803409F49DC040F48033B9F3B7
:103BA0008833F9F68093F70285ECB0C0803509F4CC
:103BB00085C0883509F496C0883499F60E94631C44
:103BC000D0CF883909F48CC038F5883729F050F403
:103BD000883611F0803729F683E08093F90210923D
:103BE0008F0257C0883809F47BC0803919F08038BB
:103BF00009F0B7CF80918F02803208F071C0E09158
:103C00008F0281E08E0F80938F028091BB00F0E0E5
:103C1000E159FD4F80833DC0803B39F0E0F4803AAC
:103C200009F479C0883A09F09CCF84E08093F902C6
:103C300010926E0210926D02E0919A02F0919B0236
:103C4000099580916D0281110FC081E080936D0212
:103C500010924D0209C0803C09F4A6CF883C09F4BB
:103C6000A3CF883B09F07DCFE0916E0281E08E0FFB
:103C700080936E02F0E0E35BFD4F80818093BB0098
:103C800090916E0280916D0229C08091D402809340
:103C9000BB0085EC8093BC0064CF9091F6028091CC
:103CA000F502981758F5E091F60281E08E0F8093A7
:103CB000F602F0E0EB52FD4F8081E9CFE091F60291
:103CC00081E08E0F8093F6028091BB00F0E0EB5212
:103CD000FD4F80839091F6028091F5029817C8F20B
:103CE00085E8D8CFE091F60281E08E0F8093F6024E
:103CF0008091BB00F0E0EB52FD4F80838091F80291
:103D000081115CCF81E08093D30284EA8093BC0070
:103D10001092F90226CF85EC8093BC001092F90234
:103D200080918F02803230F4E0918F02F0E0E1590F
:103D3000FD4F108260918F0270E0E0919C02F09143
:103D40009D028FE692E0099510928F020ACF1092A1
:103D5000F70234CFCF93DF931092260310922503FE
:103D600088EE93E0A0E0B0E08093270390932803CF
:103D7000A0932903B0932A032FE731E03093240363
:103D80002093230325EC30E03093300320932F035E
:103D900024EC30E0309332032093310320EC30E008
:103DA000309334032093330321EC30E03093360317
:103DB0002093350322EC30E030933803209337030F
:103DC00026EC30E030933A032093390310923C0301
:103DD00010923D0310923E0310923F031092C303D2
:103DE0001092C2038093C4039093C503A093C603AB
:103DF000B093C70381E991E09093C1038093C0031E
:103E000010927A051092790586E291E09093F70579
:103E10008093F6051092F8051092F905109293051B
:103E200083EA91E0909378058093770510927C0562
:103E300010927B05109290051092870510928805CC
:103E40001092890510928A058FEF809391058093D7
:103E50009505E9E9F5E08FEA95E0CFEFC1938E177C
:103E60009F07E1F78DE59CE09093800580937F05A7
:103E700082E59DE090938205809381058CE294E138
:103E8000909384058093830585EF91E19093860557
:103E90008093850530E020E040E069E08BE795E025
:103EA0000E945D0C1092C7051092C60580E391E058
:103EB0009093B0058093AF0580ED93E09093B405A7
:103EC0008093B30582E08093B5051092B6051092F9
:103ED000D3051092F30581E08093F4058093F505F6
:103EE0008BEA91E09093B2058093B1058BE795E062
:103EF0000E94C80D1092C2051092C405C093C3055C
:103F0000C093C505E091B105F091B2050280F3813F
:103F1000E02D8BE795E0099583E991E09093C90541
:103F20008093C8051092D605C093A405C093A5053B
:103F3000C093A60562E083E00E94880B62E082E005
:103F40000E94880BE1EBF0E0E491F0E0EE0FFF1F40
:103F5000EC55FF4FA591B491B0936C05A0936B0500
:103F6000E3E9F0E0449140936F05E0EBF0E0E49189
:103F7000F0E0EE0FFF1FEC55FF4FC591D491D093A9
:103F80006E05C0936D05E2E9F0E0E491E093700501
:103F900010927205109273051092740510927505B7
:103FA0002CE93FE0C9010197F1F79C91842F892307
:103FB00091E009F490E08881E82309F092602BE613
:103FC00035E0909371053093CF032093CE0387E7BC
:103FD00095E1909303018093020180916900837FB2
:103FE000846080936900E99A81E08093760530933C
:103FF000CD032093CC0381E795E190930101809359
:104000000001809169008C7F816080936900E89A4B
:1040100082E08093760585E0E4EEF4E0DF011D9216
:104020008A95E9F71092E9041092EA041092EB04E1
:104030001092EC0480E68093620580E498E7ADE797
:10404000B1E08093510590935205A0935305B0932E
:10405000540510924E0510924D0510925005109285
:104060004F051092610580E28093D00499E8909307
:10407000D10495E19093D20498E29093D3041092E6
:10408000D4041092D5041092D6041092D7048093D1
:10409000D80481EA8093D90480E18093DA048DE327
:1040A0008093DB041092DC041092DD041092DE0495
:1040B0001092DF041092E3041092E204DF91CF919A
:1040C0000895CF93DF93CDB7DEB7AF970FB6F894CF
:1040D000DEBF0FBECDBF789484B5826084BD84B549
:1040E000816084BD85B5826085BD85B5816085BDF3
:1040F00080916E00816080936E00109281008091AB
:104100008100826080938100809181008160809332
:104110008100809180008160809380008091B10057
:1041200084608093B1008091B00081608093B00082
:1041300080917A00846080937A0080917A00826016
:1041400080937A0080917A008E7F80937A008091AC
:104150007A00806880937A001092C100E091330366
:10416000F091340382E08083E0912F03F0913003DB
:104170001082E0913103F091320383E38083109247
:104180003B03E0913703F091380386E08083E091B0
:104190003503F0913603808180618083E09135039F
:1041A000F0913603808188608083E0913503F0913F
:1041B0003603808180688083E0913503F091360377
:1041C00080818F7D808389EB91E00E94B4178CED14
:1041D00091E00E94B417E0917F05F091800530E0F6
:1041E00020E040E06AE08BE795E009958BE795E0F9
:1041F0000E94511C8BE795E00E94271C8111FACF89
:1042000060E08BE795E00E948611E0917F05F091D8
:10421000800530E020E040E06BE08BE795E0099519
:104220000E94ED098091C6059091C705825C90407F
:1042300009F495C0E2ECF0E0F093C705E093C60501
:10424000E491E093D705E3ECF0E0E491E093D80546
:10425000E4ECF0E0E491E093D905E5ECF0E0E491E2
:10426000E093DA05E6ECF0E0E491E093DB05E7ECBF
:10427000F0E0E491E093DC05E8ECF0E0E491E09319
:10428000DD05E9ECF0E0E491E093DE05EAECF0E036
:10429000E491E093DF05EBECF0E0E491E093E005DE
:1042A000ECECF0E0E491E093E105EDECF0E0E4917A
:1042B000E093E205EEECF0E0E491E093E305EFEC4F
:1042C000F0E0E491E093E405E0EDF0E0E491E093C8
:1042D000E505E1EDF0E0E491E093E605E2EDF0E0E4
:1042E000E491E093E70561E182EC90E00E94A40F85
:1042F0009093E9058093E80563E182EC90E00E94E9
:10430000A40F9093EB058093EA0565E182EC90E0C1
:104310000E94A40F9093ED058093EC058091C60553
:104320009091C705892BD9F08091E4058093F00521
:104330004091E5054093F1059091EF05992379F0BF
:10434000913009F0E6C19091E605891714F4909335
:10435000F0058091E705841714F48093F10511E0CE
:104360001093D30585EE91E00E94B4174090E204CB
:104370005090E304052C000C660877081092B202F6
:104380001092B10210920003109222030E94AD120B
:1043900086E29AE090939B0280939A0287E29AE0E9
:1043A00090939D0280939C02809162051093FF027E
:1043B0008093210381E00E94EC12811129C180E0E9
:1043C0000E94F41590E0880F892F881F990B0197A0
:1043D000B1F362E987EB0E94CD1480E498E7ADE782
:1043E000B1E08093510590935205A0935305B0938B
:1043F00054054092590550925A0560925B0570929F
:104400005C0520913D0530913E0540913F0550915E
:104410004005609141057091420510E000E08091F7
:104420004305909144050E94AD18209145053091B7
:1044300046054091470550914805609149057091A6
:104440004A0501E010E080914B0590914C050E94D7
:10445000AD1860E880E10E94CD1460E881E10E941F
:10446000CD1460E882E10E94CD1460E883E10E94EF
:10447000CD1460E884E10E94CD1460E885E10E94DB
:10448000CD1460E886E10E94CD1460E887E10E94C7
:10449000CD146CE080E10E94CD146CE081E10E94BB
:1044A000CD146CE082E10E94CD146CE083E10E94A7
:1044B000CD146CE084E10E94CD146CE085E10E9493
:1044C000CD146CE086E10E94CD146CE087E10E947F
:1044D000CD1410E000E020E030E24FE550EA62E168
:1044E00070E080E090E00E94AD1801E010E020E074
:1044F00030E24FE550EA62E170E080E090E00E9437
:10450000AD181092EE041092ED041092F004109287
:10451000EF041092F2041092F1041092F40410923D
:10452000F3041092F6041092F5041092F80410921D
:10453000F70481E090E09093FA048093F90490935B
:10454000FC048093FB0470E060E090E080E00E9457
:10455000401770E060E081E090E00E94401770E05A
:1045600060E082E090E00E94401770E060E083E04D
:1045700090E00E94401770E060E084E090E00E94CC
:10458000401770E060E085E090E00E94401761E035
:1045900070E086E090E00E94401761E070E087E004
:1045A00090E00E94401760E082EA0E94CD1460E033
:1045B00083EA0E94CD1460E084EA0E94CD1460E298
:1045C00081EB0E94CD1460E881EB0E94CD140DEFC9
:1045D00014E083E6682E85E0782E912C812CF8017A
:1045E000108211821282138214821582168217821F
:1045F000085F1F4F60E0C4010E94DD16F3011192B5
:104600003F01FFEF8F1A9F0A28E08216910439F7C5
:1046100070E060E090E080E00E94221770E060E0CF
:1046200081E090E00E9422172091D0043091D104C3
:104630004091D2045091D3046091D4047091D50478
:1046400010E000E08091D6049091D7040E94771981
:104650002091D8043091D9044091DA045091DB04C0
:104660006091DC047091DD0401E010E08091DE04D3
:104670009091DF040E94771962E084E00E94880B29
:1046800062E085E00E94880B11E01093A80210936D
:10469000AD0261E090E080E00E94DD161093E0043E
:1046A0001092E10414E0212E312C412C512CAE014A
:1046B000475D5F4F5FA74EA7882483948091A00237
:1046C000082F10E0000F111F84E00E94310B817051
:1046D000802B8093A0028770B9F1873011F410927B
:1046E0009E028091A102082F10E0000F111F85E0AB
:1046F0000E94310B8170802B8093A102877069F535
:1047000080919F0280929F0281112BC08092AC0207
:1047100028C03091E1052091E305082E000C990B8B
:10472000622F022E000C770B630F711D37FD7A95F7
:10473000861797071CF4320F3093F00524170CF0FE
:104740000ECE2093F1050BCE80919E0280929E02A8
:104750008111C7CF8092AB02C4CF873011F4109281
:104760009F0280917605823008F072C0F8948BE643
:1047700095E00E942F1560917205709173058091EC
:104780007405909175057894A20191010E94BB2651
:104790008091A202922F981B2093A2023093A30231
:1047A0004093A4025093A5029093B0028091AE0270
:1047B0009091AF0201969093AF028093AE028092E7
:1047C000AD028436910524F01092AF021092AE0231
:1047D0008091AB021092AB02882349F08091A8022D
:1047E00088258093A8028EEE91E00E94B4178091F4
:1047F000AC021092AC02882321F088EF91E00E9475
:10480000B4177090B002772009F439C18091A802E2
:10481000882301F141E069E087EA92E00E941715E0
:104820008091A702282F082E000C330B8A3008F045
:104830000AC1F901E25EFB4D0C94DA261E25202602
:104840002026322632261C26342634263E263E26B4
:10485000F89491CF9090A702E4E0E91564F0F1E0BC
:104860009F160CF09CC0992009F45BC082E092E096
:104870000E94B417D5CF25E0921609F473C039E031
:104880003915A4F34BEF940E612C24E630E040E0A0
:1048900050E060E070E080E090E0EAE0AE2EB12C05
:1048A000C12CD12CE12CF12C00E010E00E94EB2671
:1048B0006394691490F3E72DEE0FEE0B59016A0132
:1048C0007B018C01272D3E2F4E2F5E2F6E2F7E2FCA
:1048D0008E2F9E2F0E94EB26A090D804B090D90472
:1048E000C090DA04D090DB04E090DC04F090DD04AA
:1048F0000091DE041091DF040E947B282093D804ED
:104900003093D9044093DA045093DB046093DC04C1
:104910007093DD048093DE049093DF0401E010E0E7
:104920008AC040E063E080EE94E00E941715809119
:10493000E004811106C060E090E080E00E94DD1696
:104940006FCF61E090E080E00E94DD166091E004AE
:10495000062E000C770B6150710990E080E00E94F8
:1049600022175ECF40E063E081EE94E00E941715CD
:104970008091E104811104C060E081E090E0DECF2D
:1049800061E081E090E00E94DD166091E104062E76
:10499000000C770B6150710981E090E0E0CF612C51
:1049A00024E630E040E050E060E070E080E090E03D
:1049B000FAE0AF2EB12CC12CD12CE12CF12C00E06F
:1049C00010E00E94EB266394691490F3E72DEE0F3C
:1049D000EE0B59016A017B018C01272D3E2F4E2FD2
:1049E0005E2F6E2F7E2F8E2F9E2F0E94EB26A09083
:1049F000D004B090D104C090D204D090D304E09001
:104A0000D404F090D5040091D6041091D7040E94EC
:104A10007B282093D0043093D1044093D204509348
:104A2000D3046093D4047093D5048093D6049093F8
:104A3000D70410E000E00E947719F2CE1092A9028C
:104A40008EE08093AA0282E192E00E946317609157
:104A5000A90270E090E080E04AE00E9470178CE1CB
:104A600092E00E9463176091AA0270E090E080E0FB
:104A70004AE00E94701781EB91E00E9463178091D9
:104A8000B002882399F08FE192E00E946317809131
:104A9000A7024AE0BE016F5F7F4F082E000C990B02
:104AA0000E946426CE0101960E94B4178091B00244
:104AB000811105C08091AD02882309F4B0C0E09156
:104AC000E0040E2E000CFF0BE159FE4F808189831C
:104AD00010E21A83BE016D5F7F4F80ED94E00E946B
:104AE000A51BE091E1040E2E000CFF0BE159FE4FD7
:104AF0008081898B1A8BBE016D5E7F4F88ED94E0BB
:104B00000E94A51B8EE08093A6028091AF028F9336
:104B10008091AE028F9384E292E09F938F93FFA5E2
:104B2000FF932EA52F930E94D7298BE795E00E9433
:104B3000121C8BE795E00E94511C0F900F900F9074
:104B40000F900F900F9000E420E840E060E08BE7CA
:104B500095E00E940B0E8823F9F000E020E840E089
:104B600060E08BE795E00E949C0E01E02EE341E0BF
:104B700060E08BE795E00E949C0E2EE341E06FE73A
:104B80008BE795E00E949C0E00E020E84FE360E098
:104B90008BE795E00E949C0E8091A60246E251E0D0
:104BA00050937E0540937D05BE016F5F7F4F0E944D
:104BB00049118091A602E6E2F1E0F0937E05E093D0
:104BC0007D05BE016F5E7F4F880F0E944911809165
:104BD000A8021091AA02882309F452C041E0410FB3
:104BE00000E028E06091A9028BE795E00E949C0E0E
:104BF0008091A60226E231E030937E0520937D0568
:104C0000BE01675D7F4F880F880F0E9449118BE7B7
:104C100095E00E94271C811196CF1092AD0240E0D2
:104C200050E0452B09F44ACD0E94650A882309F417
:104C300043CD0E94000040CD1092A9028CE101CF2B
:104C400083E09EE09093AA02E9E0F0E0E21BF30B20
:104C50009F01820F932F911D880F880F880F8093DB
:104C6000A902F1CE82E0EDCF83E09CE19093AA020D
:104C70004EE050E0421B530B9A01EBCF82E0F5CFA0
:104C80008091A6021E5F7090A902912E981A0FEFD4
:104C9000010F28E0270D492D672D8BE795E00E9435
:104CA0000B0E882309F4A4CF66246394690C1615AF
:104CB00009F49ECF00E028E0492D672D8BE795E0B1
:104CC0000E949C0E962CF0CFBB274A3031F49923DA
:104CD00022F4BDE2909581959F4F0C947026BB27DE
:104CE000FB015527AA27880F991FAA1FA41710F0A8
:104CF000A41B83955051B9F7A05DAA3308F0A95DB4
:104D0000A193009779F7B111B1931192CB010C9453
:104D10008926DC01FC01672F71917723E1F7329737
:104D200004C07C916D9370836291AE17BF07C8F386
:104D30000895A1E21A2EAA1BBB1BFD010DC0AA1FDC
:104D4000BB1FEE1FFF1FA217B307E407F50720F0F4
:104D5000A21BB30BE40BF50B661F771F881F991F6F
:104D60001A9469F760957095809590959B01AC01B8
:104D7000BD01CF010895052E97FB1EF400940E94FB
:104D8000D22657FD07D00E94992607FC03D04EF487
:104D90000C94D22650954095309521953F4F4F4F1A
:104DA0005F4F089590958095709561957F4F8F4FD7
:104DB0009F4F0895EE0FFF1F0590F491E02D099489
:104DC0000E949C28A59F900DB49F900DA49F800DDC
:104DD000911D11240895DF93CF931F930F939A9DF4
:104DE000F02D219FF00D8B9DF00D8A9DE02DF10D92
:104DF000039FF00D029FE00DF11D4E9DE00DF11D92
:104E00005E9DF00D4F9DF00D7F936F93BF92AF921B
:104E10005F934F93D5010E949C288B01AC01D70171
:104E20000E949C28EB01E80FF91FD6010E943A2747
:104E30002F913F91D6010E949C28C60FD71FE81FD3
:104E4000F91FAF91BF910E943A272F913F910E9485
:104E50009C28C60FD71FE81FF91FD6010E949C2867
:104E6000E60FF71F9801BE01CF010F911F91CF915F
:104E7000DF9108950E949C28460F571FC81FD91F15
:104E800008F431960895E894DF93CF93FC01DB0199
:104E90000E949C287F936F93E9019A01AC01BF9314
:104EA000AF933F932F93DF010E949C2826F46C1B45
:104EB0007D0B820B930B9E01EB01FC010E943A27B4
:104EC000AF91BF912F913F910E943A27BE01CF0130
:104ED000F9012F913F91CF91DF910895689401C01E
:104EE000E894F92FF12B12F00C94A227A0E0B0E087
:104EF000ECE7F7E20C941428092E059422F40E94A2
:104F0000FE27112392F4F0E80F26FFEFE094F094CF
:104F100000951095B094C094D094A194BF0ACF0A84
:104F2000DF0AEF0AFF0A0F0B1F0B0E94AD2707FCD9
:104F30000E94FE27CDB7DEB7ECE00C9430286894D1
:104F400001C0E8948F929F92CF93DF930E94AD2788
:104F5000DF91CF919F908F90089588249924F40138
:104F6000E401B0E49F93AA279A158B049C04ED05F5
:104F7000FE05CF05D007A10798F4AD2FDC2FCF2F6A
:104F8000FE2FE92D982C892E982F872F762F652FAD
:104F9000542F432F322F2227B85031F7BF9127C00B
:104FA0001B2EBF91BB27220F331F441F551F661FA7
:104FB000771F881F991F881C991CEE1FFF1FCC1F8D
:104FC000DD1FAA1FBB1F8A149B04EC05FD05CE053F
:104FD000DF05A007B10748F08A189B08EC09FD0916
:104FE000CE09DF09A00BB10B21601A94E1F62EF473
:104FF0009401AF01BE01CD01000C0895609570953C
:105000008095909530954095509521953F4F4F4F05
:105010005F4F6F4F7F4F8F4F9F4F08952F923F925B
:105020004F925F926F927F928F929F92AF92BF92B8
:10503000CF92DF92EF92FF920F931F93CF93DF9364
:10504000CDB7DEB7CA1BDB0B0FB6F894DEBF0FBEC1
:10505000CDBF09942A88398848885F846E847D840E
:105060008C849B84AA84B984C884DF80EE80FD8010
:105070000C811B81AA81B981CE0FD11D0FB6F89486
:10508000DEBF0FBECDBFED010895002E083090F0B9
:10509000982F872F762F652F542F432F322F2227BB
:1050A0000850F4CF220F331F441F551F661F771F70
:1050B000881F991F0A95B2F7002D089597FD109447
:1050C000002E083098F00850232F342F452F562FEC
:1050D000672F782F892F912DF4CF15949795879569
:1050E0007795679557954795379527950A95AAF728
:1050F0001124002D08952A0D3B1D4C1D5D1D6E1DB4
:105100007F1D801F911F08950024A7FD00942A0F82
:10511000301D401D501D601D701D801D901D089587
:105120000024A7FD00942A173005400550056005AE
:105130007005800590050895A29FB001B39FC0013E
:10514000A39F700D811D1124911DB29F700D811DB3
:105150001124911D08950F931F93CF93DF938230F5
:10516000910510F482E090E0E091FC05F091FD05DE
:1051700030E020E0B0E0A0E0309799F4211531054F
:1051800009F44AC0281B390B24303105D8F58A812F
:105190009B816115710589F1FB0193838283FE0177
:1051A00011C0408151810281138148175907E0F0F5
:1051B0004817590799F4109761F012960C931297BB
:1051C00013961C933296CF01DF91CF911F910F91CF
:1051D00008950093FC051093FD05F4CF21153105CA
:1051E00051F04217530738F0A901DB019A01BD01C4
:1051F000DF01F801C1CFEF01F9CF9093FD05809356
:10520000FC05CDCFFE01E20FF31F81939193225055
:10521000310939832883D7CF2091FA053091FB05D6
:10522000232B41F420910601309107013093FB05B7
:105230002093FA05209104013091050121153105D3
:1052400041F42DB73EB74091080150910901241B4C
:10525000350BE091FA05F091FB05E217F307A0F496
:105260002E1B3F0B2817390778F0AC014E5F5F4FBC
:105270002417350748F04E0F5F1F5093FB054093EE
:10528000FA05819391939FCFF0E0E0E09CCFCF931C
:10529000DF930097E9F0FC01329713821282A0910C
:1052A000FC05B091FD05ED0130E020E01097A1F480
:1052B00020813181820F931F2091FA053091FB05E7
:1052C0002817390709F061C0F093FB05E093FA0550
:1052D000DF91CF910895EA01CE17DF07E8F54A8103
:1052E0005B819E0141155105B1F7E901FB83EA831A
:1052F00049915991C40FD51FEC17FD0761F48081C6
:1053000091810296840F951FE90199838883828198
:1053100093819B838A83F0E0E0E012968D919C91CB
:1053200013970097B9F52D913C911197CD010296F5
:10533000820F931F2091FA053091FB05281739073A
:1053400039F6309751F51092FD051092FC05B09397
:10535000FB05A093FA05BCCFD383C2834081518162
:10536000840F951FC817D90761F44E5F5F4F88817E
:105370009981480F591F518340838A819B81938370
:1053800082832115310509F0B0CFF093FD05E0933C
:10539000FC059ECFFD01DC01C0CF13821282D7CF66
:1053A000DC0101C06D9341505040E0F70895AEE03C
:1053B000B0E0EDEDF9E20C941C280D891E8986E021
:1053C0008C831A8309838FEF9FE79E838D83AE01C1
:1053D000475E5F4F6F89788DCE0101960E94FA2952
:1053E0002F813885020F131FF80110822E96E4E0FA
:1053F0000C943828ABE0B0E0E0E0FAE20C940E2820
:105400007C013B018A01FC0117821682838181FFA6
:10541000C8C1CE0101965C01F7019381F30193FDB0
:10542000859193FF81913F01882309F453C185320F
:1054300039F493FD859193FF81913F01853229F4E1
:10544000B70190E00E94EA2BE7CF912C212C312C60
:10545000FFE1F31538F08B3211F190F4803209F14D
:10546000833229F137FC3CC020ED280F2A3050F55B
:1054700036FE20C08AE0989E200D1124922E06C090
:105480008D3291F0803371F7689430F8F30193FD19
:10549000859193FF81913F018111DACF21C06894FA
:1054A00031F8689432F8F2CF689433F8EFCF68940B
:1054B00034F8ECCFEAE02E9E200D1124222E6894C1
:1054C00035F8E4CF8E3229F436FC04C1689436F8FE
:1054D000DDCF8C3619F4689437F8D8CF8836B1F21E
:1054E000982F9F7D95549330E0F08336A1F1833758
:1054F000C1F1833509F063C02801F2E04F0E511C61
:10550000F801C080D180692D70E036FC02C06FEFD9
:105510007FEFC6010E94D42B4C01689437F88201BA
:105520000AC00C5F1F4FFFE3F98388248394912CFA
:105530006501E89437F833FE2DC0522C8114910494
:1055400071F5552009F468CFB70180E290E00E9420
:10555000EA2B5A94F6CFF801808189830E5F1F4FA2
:10556000E4CF2801F2E04F0E511CF801C080D18039
:10557000692D70E036FC02C06FEF7FEFC6010E941C
:10558000DF2B4C018201D5CFB70180E290E00E9471
:10559000EA2B2A942814190409F0B0F7CECFF601AB
:1055A00037FC859137FE81916F01B70190E00E9431
:1055B000EA2B51105A94F1E08F1A9108BFCF84362C
:1055C00019F0893609F077C0F80137FE6BC06081A9
:1055D0007181828193810C5F1F4FF32DFF763F2EE7
:1055E00097FF09C090958095709561957F4F8F4F7B
:1055F0009F4F689437F82AE030E0A5010E941A2CEA
:10560000C82ECA188C2C432C36FE0CC0E89440F8E7
:10561000C91440F434FE05C032FC03C0F32DFE7EF5
:105620004F2E892C44FE95C0FE01EC0DF11D8081AA
:10563000803309F087C0242D297E422E842D887066
:10564000582E43FC95C040FE8FC09C2C821418F449
:105650002C0C922C981844FE91C0B70180E390E086
:105660000E94EA2B42FE09C088E790E041FE02C09A
:1056700088E590E0B7010E94EA2BC91408F48AC0BB
:10568000CA94D12C9FEFC91AD90ACA0CDB1CF601A7
:1056900082916F01B70190E00E94EA2BAC14BD0427
:1056A000B1F74FCF60817181072E000C880B990BE9
:1056B0000E5F1F4F92CFD32CE894D4F82AE030E04D
:1056C000853739F1232D297FD22E8F3601F148F409
:1056D0008835A9F0F701868197812B96E2E10C9439
:1056E0002A28803749F08837A9F7D4FE02C0689489
:1056F000D2F820E130E00DC06894D4F8F6CF34FE43
:1057000003C0822F8660D82E20E132E002C028E05C
:1057100030E0F801D7FE0FC06081718182819381F2
:105720000C5F1F4FA5010E941A2CC82ECA183D2CD1
:10573000E89437F867CF6081718190E080E00E5F78
:105740001F4FF0CF42FC02C0839478CF83948394A0
:1057500075CF842D867809F471CFF6CFB70180E23A
:1057600090E00E94EA2B83948214C0F3512C73CFF3
:10577000522C5818821408F46ECFF8CF842D8678F6
:1057800009F47BCF8BE241FE80E247FC8DE2B7015A
:1057900090E071CFB70180E390E00E94EA2B9A94E9
:1057A0006CCF8FEF9FEF99CFFC0105906150704057
:1057B0000110D8F7809590958E0F9F1F0895FC01DA
:1057C0006150704001900110D8F7809590958E0F30
:1057D0009F1F08950F931F93CF93DF93182F092FC7
:1057E000EB018B8181FD09C01FEF0FEF812F902FFF
:1057F000DF91CF911F910F91089582FF14C02E81E8
:105800003F818C819D81281739073CF4E881F9811B
:10581000CF0101969983888310838E819F810196A1
:105820009F838E83E3CFE885F985812F0995892BA6
:10583000A1F3DACFFA01AA27283051F1203181F102
:10584000E8946F936E7F6E5F7F4F8F4F9F4FAF4F88
:10585000B1E03ED0B4E03CD0670F781F891F9A1F9B
:10586000A11D680F791F8A1F911DA11D6A0F711D4F
:10587000811D911DA11D20D009F468943F912AE05B
:10588000269F11243019305D3193DEF6CF01089543
:10589000462F4770405D4193B3E00FD0C9F7F6CF74
:1058A000462F4F70405D4A3318F0495D31FD40523C
:1058B000419302D0A9F7EACFB4E0A69597958795D2
:1058C00077956795BA95C9F70097610571050895B1
:1058D0009B01AC010A2E069457954795379527955D
:1058E000BA95C9F7620F731F841F951FA01D0895F5
:0458F000F894FFCF5A
:1058F400DE0BDE0B0000FE0580001815A015C01994
:10590400FF1815A115C819FF1815AE19FF1815AF02
:1059140019FF1815AE15D5168015A8163F15D31600
:10592400001540158D16141520160015A115C8155F
:10593400DA1612158116CF15D916F115DB16401596
:105944002E15A415A619FF0001140A64643232004E
:10595400127A0000042896100800008000400030ED
:105964003132332C343C444C545C5C000000009BCA
:105974000AF909280AE80A590A370A4B0A000000FA
:10598400009E14FF13F115DC139501EC13DD1300D5
:10599400000000A5157D15F115F015C80D320EBCDB
:1059A4000D0D0A0025396C64006275696C643A4611
:1059B40065622031322032303231202032323A33A3
:1059C400363A33340A73746172740A006C63642067
:1059D400696E69740064647320696E697400737716
:1059E4003120636C69636B0073773220636C696385
:1059F4006B0063757220706F7320696C6C656761EE
:105A04006C0063757228782C79293D002C20006382
:085A140075723A0025336400AD
:107800000C94343C0C94513C0C94513C0C94513CE1
:107810000C94513C0C94513C0C94513C0C94513CB4
:107820000C94513C0C94513C0C94513C0C94513CA4
:107830000C94513C0C94513C0C94513C0C94513C94
:107840000C94513C0C94513C0C94513C0C94513C84
:107850000C94513C0C94513C0C94513C0C94513C74
:107860000C94513C0C94513C11241FBECFEFD8E036
:10787000DEBFCDBF11E0A0E0B1E0EAE8FFE702C063
:1078800005900D92A230B107D9F712E0A2E0B1E065
:1078900001C01D92AD30B107E1F70E942D3D0C945F
:1078A000C33F0C94003C982F95959595959595958B
:1078B000905D8F708A307CF0282F295A8091C0000B
